:020000040800F2
:1000000070FF0020C1020008C5020008195F000847
:10001000C9020008CB020008CD0200080000000061
:10002000000000000000000000000000CF020008F7
:10003000D1020008000000004303000879E900082D
:10004000D7020008D7020008D702000881C40008C0
:10005000D7020008D70200081D540008D702000884
:10006000D70200085554000885540008D70200083C
:10007000D7020008D7020008D7020008D7020008FC
:10008000D7020008D7020008D7020008D7020008EC
:1000900021FC0008D7020008D7020008E954000834
:1000A000D7020008D7020008D7020008D7020008CC
:1000B000A9E90008DDE9000861EA0008D7020008A4
:1000C000D7020008D7020008D7020008D7020008AC
:1000D000D7020008E9F90008D70200084DFA000825
:1000E000D7020008D7020008B9FA0008D7020008B2
:1000F000D7020008D7020008D7020008D70200087C
:10010000D70200083DD00008B1EB0008D702000874
:10011000D7020008D702000829EC000849EC0008C3
:10012000D7020008D7020008D7020008D70200084B
:1001300000F002F800F0B0F80AA090E8000C824449
:100140008344AAF10107DA4501D100F0A5F8AFF226
:10015000090EBAE80F0013F0010F18BFFB1A43F0A5
:100160000103184774B4040094B404000A444FF027
:10017000000C10F8013B13F0070408BF10F8014B06
:100180001D1108BF10F8015B641E05D010F8016B4B
:10019000641E01F8016BF9D113F0080F1EBF10F8AF
:1001A000014BAD1C0C1B09D16D1E58BF01F801CBD2
:1001B000FAD505E014F8016B01F8016B6D1EF9D555
:1001C0009142D6D37047000000230024002500266A
:1001D000103A28BF78C1FBD8520728BF30C148BFAA
:1001E0000B6070476E2902F00B83702902F0578074
:1001F00066292FF0748465292FF0718467292FF008
:100200006E846129AFF3008003681B0A28BF41F0A8
:100210008001692901F0C887642901F0C587752923
:1002200001F0C2876F2902F01186782902F023803D
:10023000E92902F0AB85E42902F0A885F52902F04E
:10024000A585EF2902F00E86F82902F022800368C6
:10025000DB0928BF41F08001632902F01A85732968
:1002600002F01F85E32902F05187F32902F0568737
:10027000002070471FB502F0A9FE040000200021F5
:100280002EF0B8F9401C6060002000212EF09CF98F
:10029000E0601FBD10B510BD02F0FAFF1146FFF778
:1002A000E9FF1EF02BFF03F073FA03B4FFF7F2FF30
:1002B00003BC10F057FC000080F308887047000072
:1002C00008480047FEE7FEE7FEE7FEE7FEE7FEE739
:1002D000FEE7FEE7FEE7FEE703480449024A044B57
:1002E000704700003101000870FB002070FF002003
:1002F00070FB0020EFF3108072B6704780F3108817
:100300007047204C204D25604FF0000484F309888D
:100310001E4C4FF0010525701D4C4FF08055256097
:1003200062B6FEE730B41A4C4FF08055256030BC01
:10033000704730B4164C4FF08055256030BC704784
:1003400000BF72B6EFF3098028B1203880E8F00FC3
:1003500010490968086000B50F4880475DF804EB54
:100360000E480F490A7802700A480E490A6802606E
:10037000106890E8F00F203080F309884EF0040EEA
:1003800062B6704720ED00E00000FFFFA7030020E9
:1003900004ED00E0C0030020A5B50008A403002080
:1003A000A5030020C803002010B5FF48006810F026
:1003B000C5FCFE48006810F0C1FCFD48006810F064
:1003C000BDFCFC48006810F0B9FCFB48006810F068
:1003D000B5FCFA48006810F0B1FCF948006810F06C
:1003E000ADFC10BD10B500244FF4007010F0AAFC55
:1003F000ED4908600846006800B901244FF4007018
:1004000010F0A0FCE94908600846006800B9012422
:100410004FF4007010F096FCE5490860084600684B
:1004200000B90124A02010F08DFCE24908600846C4
:10043000006800B90124402010F084FCDE49086007
:100440000846006800B90124402010F07BFCDB491D
:1004500008600846006800B901244FF4F87010F0F5
:1004600071FCD74908600846006800B901240CB146
:10047000FFF79AFF204610BD2DE9F04704460D46D0
:100480001646701B00EBD07105EB610954F839700A
:1004900004EBC90148682FF0AFF8804654F83500E6
:1004A00044F8390004EBC500406804EBC90148601A
:1004B000A94605F1010A1DE054F83A0039462FF02B
:1004C0002DF915D854F83A0044F8390004EBCA0065
:1004D000406804EBC901486009F1010954F839008A
:1004E00044F83A0004EBC900406804EBCA014860D4
:1004F0000AF1010AB245DFDDA9EB0500012805DD9F
:10050000A9F1010229462046FFF7B6FFA6EB090034
:10051000012805DD324609F101012046FFF7ACFF55
:1005200044F8397040462FF0CDF804EBC90148601B
:10053000BDE8F0872DE9F84F04460D4616461F46E4
:100540004FF0000828E04FF0000920E04FF0000BCA
:10055000DA4612E00B9A0AFB029255F822100A9A28
:1005600008FB02A254F822002FF00CF95946009023
:100570002EF0D8FE83460AF1010A0A988245E9DB8B
:100580000B9808FB009046F820B009F101090B9880
:100590008145DBDB08F10108B845D4DBBDE8F88F05
:1005A000024612B909B900207047002A02DD09B9D4
:1005B0000020F9E7002903DD8A4201DD0120F3E78D
:1005C000002A03DD914201D10220EDE7002A03DD7C
:1005D0008A4201DA0320E7E71AB9002901DD042085
:1005E000E2E7002A08DA101E01DB034600E043427E
:1005F0008B4201DA0520D7E7002A08DA101E01DB5A
:10060000034600E043428B4201D10620CCE7002A9A
:100610000ADA101E01DB034600E043428B4203DD91
:10062000002901DD0720BFE719B9002A01DA0820F7
:10063000BAE7002903DA914201DD0920B4E7002A74
:1006400003DA914201D10A20AEE7002A03DA91428F
:1006500001DA0B20A8E71AB9002901DA0C20A3E778
:1006600000290ADA081E01DB034600E043429342F8
:1006700003DD002A01DD0D2096E7002908DA081EB7
:1006800001DB034600E04342934201D10E208BE799
:10069000002908DA081E01DB034600E043429342CA
:1006A00001DA0F2080E700207EE730B5034601B174
:1006B0000AB9002030BD412901D0412A01D10020D2
:1006C000F8E7491E521E03EBC20000EBE10004787C
:1006D00001F007050120A840044201D00120E9E70C
:1006E0000020E7E72DE9FE4F04460D4616461F465B
:1006F00000200190781C82000021324810F026FB77
:10070000781C82000021304810F020FB4FF00008D8
:1007100019E04FF0000912E004EBC80000EBE9001B
:10072000017809F0070201209040014205D04FF006
:100730007E5101982EF0F6FD019009F10109B145B5
:10074000EADB08F10108A845E3DB38462EF0BAFFE2
:100750008246014601982EF059FE01900120029038
:1007600049E04FF0000AD0463AE04FF0000912E0AD
:1007700004EBC90000EBE800017808F00702012053
:100780009040014205D04FF07E5150462EF0CAFDF8
:10079000824609F10109A945EADB02982EF092FF91
:1007A0000090019912E00000DC050020E005002027
:1007B000E4050020E8050020EC050020F0050020FD
:1007C000F4050020E8FA0020FCFA00202EF0DAFF01
:1007D000834651462EF0A2FF00D804E008F101083C
:1007E000701E4045C1DC00BFFD48029940F82180E1
:1007F0000298401C0290781C02998142B1DB0120D2
:10080000029035E04FF0000AD14626E04FF0000894
:1008100012E004EBC90000EBE800017808F00702E1
:1008200001209040014205D04FF07E5150462EF0FD
:1008300079FD824608F10108B045EADB02982EF006
:1008400041FF009001992EF09DFF834651462EF006
:1008500065FF00D804E009F10109681E4845D5DCB0
:1008600000BFE049029841F820900298401C029095
:10087000781C02998142C5DB0020029032E0029987
:1008800091FBF7F1D74A52F82120029991FBF7F139
:10089000491CD44B53F82110501800EBD07149106B
:1008A000D14A1268029B42F82310029991FBF7F299
:1008B00007FB1211CA4A52F82120029991FBF7F363
:1008C00007FB1311491CC64B53F82110501800EBBD
:1008D000D0714910C54A1268029B42F82310029851
:1008E000401C029007FB07F002998842C7DCBDE874
:1008F000FE8F2DE9F34F8FB0402440200A90102541
:10090000AA000021B948006810F020FAAA000021CE
:10091000B548006810F01AFA042321460A9A0F9885
:10092000FFF7E0FEE2000021B148006810F00EFA87
:1009300000200B9060E3AC4801680B9851F8200050
:100940000290AA4801680B9851F820000190029883
:100950000830402801DD402001E00298083008906E
:1009600001980830402801DD402001E0019808305E
:1009700006900298083801D5002001E00298083856
:1009800009900198083801D5002001E00198083845
:10099000079009980E9027E307980D901CE3DDE976
:1009A0000D120F98FFF781FE8146DDE90D12491CFB
:1009B0000F98FFF77AFE022101FB0099DDE90D1285
:1009C000891C0F98FFF771FE81440E9A921C0D99B5
:1009D0000F98FFF76AFEA9EB00090E9A921C0D9979
:1009E000491C0F98FFF761FE022101FB10990E9A36
:1009F000921C0D99891C0F98FFF757FEA9EB000078
:100A000007B2DDE90D12891C0F98FFF74EFE8146F3
:100A10000E9A521C0D99891C0F98FFF746FE022171
:100A200001FB00990E9A921C0D99891C0F98FFF7F3
:100A30003CFE8144DDE90D120F98FFF736FEA9EB6D
:100A400000090E9A521C0D990F98FFF72EFE0221F5
:100A500001FB10990E9A921C0D990F98FFF725FE35
:100A6000A9EB00000FFA80F8002F02DBB8F1000FAD
:100A700000DA00BF41463846FFF792FD0390039825
:100A800041100B9801FB05060398401C40100B9980
:100A900000FB0510059002990E98401A083000EBF3
:100AA0000010019A0D99891A08440830514951F8EB
:100AB00020000490039810281CD2DFE800F0081CE6
:100AC0004A629FB3F2F0EFEEEDECEBEAE9E838466C
:100AD0002EF0F8FD824604992EF054FE81464448DB
:100AE000006850F8261048462EF01CFC4049096862
:100AF00041F826006CE2A7EB08002EF0E3FD8246E9
:100B000004992EF03FFE81463948006850F82610BF
:100B100048462EF007FC3649096841F82600404651
:100B20002EF0D0FD834634492EF02CFE82460499E7
:100B30002EF028FE81462E480268059852F82010B3
:100B400048462EF0EFFB2A490968059A41F8220031
:100B50003EE240462EF0B6FD834627492EF012FEB7
:100B6000824604992EF00EFE81462148006850F816
:100B7000261048462EF0D6FB1D49096841F826008C
:100B800026E238462EF09EFD83461B492EF0FAFDE4
:100B9000824604992EF0F6FD81461548006850F80B
:100BA000261048462EF0BEFB1149096841F8260080
:100BB000A8EB07002EF086FD824604992EF0E2FD98
:100BC00081460B480268059852F8201048462EF0DE
:100BD000A9FB07490A68059942F82100F8E10000DD
:100BE000E8FA0020FCFA0020F0050020EC050020C7
:100BF000E0050020B0F20308F704B53F40462EF0B0
:100C000061FD824604992EF0BDFD8146FE480068D4
:100C100050F8261048462EF085FBFB49096841F83C
:100C20002600D5E107EB08002EF04CFD8246049922
:100C30002EF0A8FD8146F448006850F8261048467A
:100C40002EF070FBF049096841F82600B7F1000961
:100C500001DB494601E0C9F1000108462EF032FDF2
:100C6000EA4900902EF08EFD834604992EF08AFD0D
:100C70008246E5480068059A50F8221050462EF04A
:100C800051FBE1490968059A41F82200A0E166E1BB
:100C90004DE111E1F5E0BFE09FE069E04DE018E0D3
:100CA000FFE740462EF00EFD8346D8492EF06AFD40
:100CB000824604992EF066FD8146D348006850F8BC
:100CC000261048462EF02EFBCF49096841F8260031
:100CD0007EE140462EF0F6FC8346CC492EF052FDD4
:100CE000824604992EF04EFD8146C748006850F8B0
:100CF000261048462EF016FBC349096841F8260025
:100D000017EB080901D4494601E0C9F10001084682
:100D10002EF0D8FC834604992EF034FD8246BA4862
:100D20000068059A50F8221050462EF0FBFAB6499A
:100D30000968059A41F822004AE1B7F1000901DB90
:100D4000494601E0C9F1000108462EF0BBFC83468C
:100D500004992EF017FD8246AB48006850F8261023
:100D600050462EF0DFFAA849096841F826002FE125
:100D7000A8EB07002EF0A6FC824604992EF002FD97
:100D80008146A148006850F8261048462EF0CAFA5D
:100D90009D49096841F82600B8F1000901DB494680
:100DA00001E0C9F1000108462EF08CFC9749009043
:100DB0002EF0E8FC834604992EF0E4FC824692482B
:100DC0000068059A50F8221050462EF0ABFA8E4972
:100DD0000A68059942F82100FAE0B8F1000901DB40
:100DE000494601E0C9F1000108462EF06BFC874935
:100DF00000902EF0C7FC834604992EF0C3FC824677
:100E00008148006850F8261050462EF08BFA7E4933
:100E1000096841F82600DBE0B7F1000901DB49462B
:100E200001E0C9F1000108462EF04CFC7749009022
:100E30002EF0A8FC834604992EF0A4FC824672484A
:100E4000006850F8261050462EF06CFA6E4909687A
:100E500041F82600A7EB08002EF034FC82460499E6
:100E60002EF090FC814668480268059852F82010E0
:100E700048462EF057FA64490A68059942F821005D
:100E8000A6E0B8F1000901DB494601E0C9F1000123
:100E900008462EF017FC834604992EF073FC824618
:100EA0005948006850F8261050462EF03BFA564933
:100EB000096841F826008BE017EB080901D4494680
:100EC00001E0C9F1000108462EF0FCFB83460499BD
:100ED0002EF058FC82464C48006850F826105046C8
:100EE0002EF020FA4849096841F82600B7F10009B8
:100EF00001DB494601E0C9F1000108462EF0E2FBA2
:100F0000424900902EF03EFC834604992EF03AFCB4
:100F100082463D480068059A50F8221050462EF04F
:100F200001FA39490A68059942F8210050E038462B
:100F30002EF0C8FB834635492EF024FC82460499E6
:100F40002EF020FC81463048006850F826104846B4
:100F50002EF0E8F92C49096841F8260038E0B8F18C
:100F6000000901DB494601E0C9F1000108462EF005
:100F7000A9FB264900902EF005FC834604992EF02B
:100F800001FC82462048006850F8261050462EF09A
:100F9000C9F91D49096841F8260017EB080901D471
:100FA000494601E0C9F1000108462EF08BFB83465B
:100FB00004992EF0E7FB82461348006850F826108B
:100FC00050462EF0AFF91049096841F8260000BFDD
:100FD00000BF0D98401C0D9006990D9888427FF730
:100FE000DEAC0E98401C0E9008990E9888427FF750
:100FF000D3AC0B98401C0B900B98A8427FF49BAC91
:1010000000200B901FE00000E0050020F704B53F32
:1010100000200C9011E0DDE90B0101FB0506FF4902
:10102000096851F82600FE4923F0F4F8FD490968E3
:1010300041F826000C98401C0C900C980828EADB1C
:101040000B98401C0B900B981028E1DB11B0BDE809
:10105000F08F2DE9FF4F8BB004460D461E46199FB9
:101060000020079090E2079805EB80000088ADF81B
:101070002800079805EB80004088ADF82A00079803
:10108000401C05EB80000088ADF824000798401C48
:1010900005EB80004088ADF82600BDF92800BDF9B9
:1010A0002410884272D1BDF92A00089067E0002E12
:1010B00041D04FF0FF383AE04FF0FF30069031E07A
:1010C000089810EB08002AD4089800EB080118983B
:1010D000814224DABDF92800069940181FD4BDF9D1
:1010E000281006980844B84219DABDF92810069865
:1010F000084405900898404404EBC000059900EBB3
:10110000E100007801F007020121914008430899AD
:10111000414404EBC101059A01EBE2010870069815
:10112000401C069006980228CAD108F10108B8F1BF
:10113000020FC1D116E0BDF928000590089804EB14
:10114000C001059801EBE0000078059901F0070265
:10115000012191400843089904EBC102059902EB73
:10116000E1010870BDF92600BDF92A10884203DDAF
:101170000898401C089002E00898401E0890BDF9AD
:1011800026100898814292D1FBE1FFE7BDF92A00C1
:10119000BDF92610884275D1BDF9280008906AE093
:1011A000002E42D04FF0FF383BE04FF0FF3006906A
:1011B00032E00699089840182BD4069908980844FC
:1011C0001899884225DABDF92A0010EB080020D4CE
:1011D000BDF92A004044B8421BDA06990898084431
:1011E0000590BDF92A00404404EBC001059801EBCD
:1011F000E0000078059901F00702012191400843C1
:10120000BDF92A10414404EBC102059902EBE1014A
:1012100008700698401C069006980228C9D108F16B
:101220000108B8F1020FC0D118E008980590BDF987
:101230002A0004EBC001059801EBE0000178059855
:1012400000F00702012090400143C8B2BDF92A1006
:1012500004EBC101059A01EBE2010870BDF924001D
:10126000BDF92810884203DD0898401C089002E070
:101270000898401E0890BDF92410089881428FD12B
:101280007FE1FFE7BDF92410BDF92820881A2EF070
:1012900019FA8246BDF92610BDF92A20881A2EF0C7
:1012A00011FA834651462EF0B1F881462EF00EF821
:1012B000CDE9020121F00041CDE900015AA00CC89E
:1012C00000982DF0B7FC13D2BDF92410BDF92820E9
:1012D000881A2EF0F7F98146BDF92610BDF92A20AB
:1012E000881A2EF0EFF9824649462EF08FF812E068
:1012F000BDF92610BDF92A20881A2EF0E3F981469F
:10130000BDF92410BDF92820881A2EF0DBF9824699
:1013100049462EF07BF80490BDF92420BDF9283011
:10132000D01ABDF92620BDF92A30D11A01D40B46B6
:1013300000E04B42002801DB024600E042429342BB
:101340006BDA002008907EE008982EF0BBF903903D
:1013500004992EF017FA83462EF04EF9BDF92A10A3
:1013600000EB0109BDF92800089900EB010A002EE5
:101370003CD04FF0FF3835E04FF0FF3006902CE0C6
:1013800019EB080026D409EB08001899884221DAE5
:1013900006981AEB00001DD406985044B84219DA9A
:1013A0000AF10100059009EB080004EBC000059963
:1013B00000EBE1000178059800F007020120904061
:1013C0000143C8B209EB080104EBC101059A01EB26
:1013D000E20108700698401C069006980228CFD1BA
:1013E00008F10108B8F1020FC6D113E0CDF814A03E
:1013F00004EBC900DDF814A000EBEA0001780AF064
:101400000702012090400143C8B204EBC90101EB7F
:10141000EA010870BDF924000AE01EE0E0050020A2
:1014200085EBD13EE4050020000000000000F03F05
:10143000BDF92810884203DD0898401C089002E09E
:101440000898401E0890BDF92400BDF92810401AE4
:10145000089988427FF478AF92E0BDF92420BDF965
:101460002830D01ABDF92620BDF92A30D11A01D46E
:101470000B4600E04B42002801DB024600E04242FE
:1014800093427DDB0020089072E0BDF92A10089895
:1014900001EB000908982EF015F9039004992EF03D
:1014A00071F983462EF0A8F8BDF9281000EB010A67
:1014B000002E3CD04FF0FF3835E04FF0FF30069063
:1014C0002CE019EB080026D409EB0801189881429A
:1014D00021DA06981AEB00001DD406985044B84251
:1014E00019DA06985044059009EB080004EBC00097
:1014F000059900EBE1000178059800F00702012052
:1015000090400143C8B209EB080104EBC101059A00
:1015100001EBE20108700698401C0690069802282C
:10152000CFD108F10108B8F1020FC6D113E0CDF810
:1015300014A004EBC900DDF814A000EBEA00017868
:101540000AF00702012090400143C8B204EBC90130
:1015500001EBEA010870BDF92600BDF92A108842A6
:1015600003DD0898401C089002E00898401E08908F
:10157000BDF92600BDF92A10411A0898814284D18C
:1015800000BF0798401C07900D98411E07988142A4
:101590007FF469AD0FB0BDE8F08F2DE9F04F099CE5
:1015A00015464FF0FF360F46B4464FF0000935E0C0
:1015B00000EB890ABAF902A0BA4504DA00EB890AFD
:1015C000BAF902A000E0BA46574600EB890ABAF918
:1015D00000A0AA4504DA00EB890ABAF900A000E0ED
:1015E000AA46554600EB890ABAF902A0E24504DD95
:1015F00000EB890ABAF902A000E0E246D44600EB0B
:10160000890ABAF900A0B24504DD00EB890ABAF9EB
:1016100000A000E0B246564609F10109DDF828A015
:10162000D145C5DBACEB070A0AF1010A93FBFAFAD4
:101630000AF1010EA6EB050A0AF1010A94FBFAFA77
:101640000AF101084FF000092BE000EB890ABAF912
:1016500002A0AAEB070A0AFB03FAACEB070B0BF19B
:10166000010B9AFBFBFAF2440FFA8AFA00EB890BA2
:10167000ABF802A000EB890ABAF900A0AAEB050AB0
:101680000AFB04FAA6EB050B0BF1010B9AFBFBFA24
:10169000C2440FFA8AFA00EB890BABF800A009F1FB
:1016A0000109DDF828A0D145CFDBBDE8F08F2DE999
:1016B000FF4784B014461D46BDF91000BDF9141053
:1016C000884223D1002619E0BDF81000296804EBF8
:1016D00081010880BDF81200304400B2296804EB93
:1016E000810148802868401C2860BDF91600BDF9BA
:1016F0001210884201DD761C00E0761EBDF916004E
:10170000BDF91210401AB042DED1E9E0BDF9120075
:10171000BDF91610884223D1002619E0BDF8120049
:10172000296804EB81014880BDF81000304400B204
:10173000296804EB810108802868401C2860BDF9F5
:101740001400BDF91010884201DD761C00E0761E01
:10175000BDF91400BDF91010401AB042DED1BFE04F
:10176000BDF91410BDF91020881A2DF0ABFF814689
:10177000BDF91610BDF91220881A2DF0A3FF82467C
:1017800049462DF043FE80462DF0A0FDCDE9020133
:1017900021F00041CDE90001AFF274300CC800988F
:1017A0002DF048FA13D2BDF91410BDF91020881A93
:1017B0002DF088FF8046BDF91610BDF91220881A59
:1017C0002DF080FF814641462DF020FE12E0BDF94C
:1017D0001610BDF91220881A2DF074FF8046BDF94D
:1017E0001410BDF91020881A2DF06CFF8146414677
:1017F0002DF00CFE0746BDF91420BDF91030D01AAB
:10180000BDF91620BDF91230D11A01D40B4600E003
:101810004B42002801DB024600E0424293422FDCAB
:10182000002625E0BDF81000304400B2296804EB22
:101830008101088030462DF045FF814639462DF064
:10184000A1FF80462DF0D8FEBDF81210084400B26A
:10185000296804EB810148802868401C2860BDF994
:101860001400BDF91010884201DD761C00E0761EE0
:10187000BDF91400BDF91010401AB042D2D12EE0CB
:10188000002625E0BDF81200304400B2296804EBC0
:101890008101488030462DF015FF814639462DF0F4
:1018A00071FF80462DF0A8FEBDF81010084400B26C
:1018B000296804EB810108802868401C2860BDF974
:1018C0001600BDF91210884201DD761C00E0761E7C
:1018D000BDF91600BDF91210401AB042D2D100BFB6
:1018E00008B0BDE8F0872DE9F84F04460D461646CE
:1018F000701E00EBD0714FEA6109A5EB0900009062
:10190000CA46A8000FF01EFA8346AA002146584690
:1019100000F021FEB54205DB06EBD6714910B6EBAF
:10192000410101D1BDE8F88F4F463CE0002004EBB7
:101930008701088004EB87014880CAF100081BE09A
:1019400004EB8700008807EB08010BEB8101098895
:10195000084400B204EB8701088004EB870040884C
:1019600007EB08010BEB81014988084400B204EB46
:101970008701488008F10108D045E1DD04EB8700CC
:10198000B0F9000090FBF6F000B204EB870108808C
:1019900004EB8700B0F9020090FBF6F000B204EB14
:1019A000870148807F1C00988742BFDB58460FF0B4
:1019B000C5F9B7E72DE9FF4F91B004460D461E9ECD
:1019C0000327802010900F9040200E900D90002053
:1019D0000B900A90814680200990052004902946AA
:1019E0002046049AFFF77FFF4FF0010A29E004EB3D
:1019F0008A01B1F90010AAF1010204EB8202B2F9E6
:101A00000020881A01D4014600E04142089104EB0D
:101A10008A01B1F90210AAF1010204EB8202B2F9C3
:101A20000220881A01D4014600E041420791DDE915
:101A30000710884201DB089800E0079881440AF10A
:101A4000010AAA45D3DB4FEA89000FF07BF98046F3
:101A50004FEA8902002140460FF078F94FF0000A62
:101A600015E00AF1010004EB8001042203A800F054
:101A700072FD04EB8A01042202A800F06CFD0AAB9F
:101A80004246DDE90201FFF712FE0AF1010A681E73
:101A90005045E6D14FEA8900B0FBF7F003900FF014
:101AA00051F90C904FEA8900B0FBF7F00246002193
:101AB00003900C980FF04AF94FF0000A13E008EB7E
:101AC0008A000088DDE90B2101EB8201088008EB28
:101AD0008A004088DDE90B2101EB820148800B98E8
:101AE000401C0B90BA44CA45E9DB40460FF026F98A
:101AF0000B9B0E9ACDE90023DDE90C03DDE90F1203
:101B0000FFF74BFD4FF400720021FD4800680FF015
:101B10001DF9DDE90D23CDE900230123F848DDE9B6
:101B20000B210068FFF795FA0C980FF007F9F448BD
:101B300009990068FEF7DDFE2823099ACDE9002304
:101B40000123F048F0490268F0480068FEF7F2FC13
:101B50001498012806D0022809D003280CD00428A4
:101B600014D10EE0002006900A20059012E00A2011
:101B70000690242005900DE0242006903E2005903C
:101B800008E0002006903E20059003E0002015B0FC
:101B9000BDE8F08F00BF4FF4F8720021DC48006808
:101BA0000FF0D4F84FF0000A40E04FF0000B30E0A7
:101BB000069A524402EB8202D64B03EB421252F8D1
:101BC0002B10D04A126852F82B002DF0B1FE029073
:101BD000069A524402EB8202CE4B03EB421252F8B9
:101BE0002B10C84A126852F82B002DF0A1FE01906C
:101BF00002992DF0C7FD0390C548006850F83A10CF
:101C000003982DF08FFBC249096841F83A000BF1A7
:101C1000010BBBF1280FCBD150462DF053FDBC4931
:101C2000096801EBCA0148600AF1010ADDE9050112
:101C3000401A5045B9D1DDE90501401A421E002184
:101C4000B3480068FEF718FC4FF0000A0EE0B049F8
:101C5000096801EBCA0148682DF0CEFC06990844DA
:101C6000AD49085C06F80A000AF1010A139882459A
:101C7000EDDB002006F80A00307888E72DE9F84F00
:101C800004460D4616461F46DDF828804FF0000931
:101C90004FF6FF7AD346012D02DCC846BDE8F88F27
:101CA0004FF000091CE004EB8900B0F9001009F1C5
:101CB000010004EB8000B0F9000081420BD104EB7D
:101CC0008900B0F9021009F1010004EB8000B0F9BD
:101CD0000200814200D006E009F101001FFA80F9FC
:101CE000681E4845DFDC00BF681E484500D1D5E7C7
:101CF0004FF0000919E004EB8900B0F900005045ED
:101D000004DA04EB890000881FFA80FA04EB8900EA
:101D1000B0F90200584504DA04EB890040881FFA44
:101D200080FB09F101001FFA80F9A945E3DB4FF0C0
:101D3000000915E004EB89000088A0EB0A0000B25E
:101D400004EB8901088004EB89004088A0EB0B00BC
:101D500000B204EB8901488009F101001FFA80F903
:101D6000A945E7DB3B46324629462046CDF80080B0
:101D7000FFF720FE92E72DE9F84F4FF00009C3F876
:101D800000900124EBE0A4F1010900EB8909B9F905
:101D9000005000EB8409B9F900A0CDF800A0A4F12F
:101DA000010900EB8909B9F9026000EB8409B9F96E
:101DB0000270DDF800A0BAEB050901D4CA4601E0C3
:101DC000C9F1000AD446B7EB060901D4CA4601E0BE
:101DD000C9F1000AD646F44559DD4FF0000853E03A
:101DE000DDF80090A9450ADD05EB08090FFA89F92D
:101DF000D3F800A002EB8A0AAAF8009009E0A5EB4C
:101E000008090FFA89F9D3F800A002EB8A0AAAF8A8
:101E10000090B7421ADDD3F800A002EB8A0ABAF9A3
:101E200000A0BAEB050901D4CA4601E0C9F1000AD5
:101E30000AFB0EFA9AFBFCFAB2440FFA8AFAD3F8BC
:101E400000B002EB8B0BABF802A01AE0D3F800A0B5
:101E500002EB8A0ABAF900A0BAEB050901D4CA4616
:101E600001E0C9F1000A0AFB0EFA9AFBFCFAA6EBA4
:101E70000A0A0FFA8AFAD3F800B002EB8B0BABF820
:101E800002A01B1D08F10108E045A9DB66E04FF048
:101E9000000861E0B7420ADD06EB08090FFA89F98C
:101EA000D3F800A002EB8A0AAAF8029009E0A6EB98
:101EB00008090FFA89F9D3F800A002EB8A0AAAF8F8
:101EC0000290DDF80090A94528DDD3F800A002EBD0
:101ED0008A0ABAF902A0BAEB060901D4CA4601E09F
:101EE000C9F1000A0AFB0CFA9AFBFEFAAA440FFA9F
:101EF0008AFAD3F800B002EB8B0BABF800A028E015
:101F0000DC050020E805002074FC0308E40500203F
:101F1000F4050020744C040834730408D3F800A0BE
:101F200002EB8A0ABAF902A0BAEB060901D4CA4642
:101F300001E0C9F1000A0AFB0CFA9AFBFEFAA5EBD4
:101F40000A0A0FFA8AFAD3F800B002EB8B0BABF84F
:101F500000A01B1D08F10108F0459BDB641C8C42AE
:101F6000FFF611AFBDE8F88F704753EA020C00F09E
:101F700069802DE9F04B4FF00006002B1FBFB3FA2C
:101F800083F503FA05F424FA05F65E4012BF164302
:101F9000B2FA82F502FA05F4C5F120051EBF22FA55
:101FA00005FC44EA0C04203556EA044C4FEA14447C
:101FB00018BF641C4FF000084FF00009904271EB0D
:101FC000030C39D3002919BFB1FA81F701FA07F6DA
:101FD000B0FA80F700FA07F6C7F120071EBF20FA13
:101FE00007FC46EA0C062037B6FBF4FCA7EB050716
:101FF000103F07F01F0BCBF120060CFA0BFB2CFA5D
:1020000006F644BFB3460026202FA4BF5E464FF01D
:10201000000B5BEA060C08BF4FF0010B19EB0B0934
:10202000ABFB027C48EB0608C01B06FB02CC0BFB9B
:1020300003CC71EB0C01C1E70B4602464146484612
:10204000BDE8F08B13B54FF000004FF00001AFF387
:102050000080BDE81C40704710B54C1084EA530462
:1020600004D54042C1F1000138BF491E1B4204D5CE
:102070005242C3F1000338BF5B1EFFF776FF14F036
:10208000804F04D04042C1F1000138BF491E14F016
:10209000004F04D05242C3F1000338BF5B1E10BD95
:1020A0001CB50C46064B7B4469460090204600F068
:1020B000CEFD04460020694600F0DCFD20461CBD34
:1020C000CB0B00000FB4044910B503AA029800F02E
:1020D000EDFD10BC5DF814FB080000200FB41CB52A
:1020E000084B06AA7B4469460090059800F0AFFDB6
:1020F00004460020694600F0BDFD20461CBC5DF88A
:1021000014FB00008D0B000070B504468569006863
:10211000C10601D5302600E02026C00707D070BDDB
:10212000D4E9012130469047206A401C20626D1E90
:10213000F6D570BD70B5044685690078C00707D133
:1021400070BDD4E9012120209047206A401C206204
:102150006D1EF6D570BD70B50C460546012A05D03A
:102160002878800600D5EA69002302E0012305E013
:102170005B1C934202D2E05C0028F9D1A869E61802
:10218000C01AA861286A184428622846FFF7BCFFD5
:1021900004E0D5E9012114F8010B9047B442F8D3CB
:1021A0002846FFF7C7FF70BD2DE9F0410646002421
:1021B00010687529314616A510D000F0B6FA00282F
:1021C00002DA404213A507E031688A0701D512A55B
:1021D00002E0490704D511A5012401E000F0AEFAA0
:1021E00000210A2206F1240709E0B0FBF2FCB0FB53
:1021F000F2F302FB1C00303078541846491C0028CA
:10220000F3D123462A463046BDE8F04100F09FBA9C
:10221000000000002D0000002B0000002000000046
:10222000F0B40D460188090502D5214C7C4402E03A
:102230001F4C7C440E34002100F1240608E002F01B
:102240000F071209E75D42EA03721B097754491C24
:1022500052EA0307F3D102780023120704D5702D48
:1022600006D009B1022311342246F0BC00F06FBA47
:1022700001231034F8E770B504460D462146106876
:1022800000F05CFA024629462046BDE87040002373
:10229000C6E7D21D22F00703D3E90023C0E7036895
:1022A000126843F0200303600823C3610023B7E7EB
:1022B000425104002DE9F05F894604464FF0000AC0
:1022C000DFF874B1FB44C0F820A02046E1688847DD
:1022D000002874D0252806D0D4E901219047206A2F
:1022E000401C2062F1E700265F462046E1688847EF
:1022F0002028054607DB312D05D2781910F8200C6F
:1023000008B10643F1E7B00701D526F00406C4F88A
:102310001CA00027C4F818A02A2D09D028460EF0CA
:102320001AFC38B304EB8708303DC8F8185019E0A0
:1023300059F8041B204604EB87029161E168884745
:10234000012F054618D1E069002820DA26F0200682
:102350001DE0D8F8180000EB800005EB4000303895
:10236000C8F818002046E168884705460EF0F3FBE0
:102370000028EED1012F0AD02E2D08D12046E16889
:1023800088477F1C0546022F46F02006C4DBA06963
:10239000002803DA404246F00106A061F00701D0B0
:1023A00026F010066C2D0BD0682D09D04C2D39D09D
:1023B0006A2D35D0742D35D07A2D33D016E038E023
:1023C000E1682F4620468847B842054609D16C2F60
:1023D00026D04FF48060E1680643204688470546D2
:1023E00004E06C2F1AD04FF4807006430DB3A5F1B2
:1023F0004100192802D8203546F400664A4629468D
:10240000204626604E46FDF7EDFE80B101280BD038
:10241000F61D26F0070000F1080956E74020E4E722
:102420008020D8E70020D6E706F104094DE72846CA
:1024300052E7206ABDE8F09FD250040030B505464F
:102440000B462A4613F8014B12F8010B08B1A042C3
:10245000F8D01CB1002802D06D1CF1E7284630BD31
:1024600040EA010310B59B070FD1042A0DD310C811
:1024700008C9121F9C42F8D020BA19BA884201D963
:10248000012010BD4FF0FF3010BD1AB1D30703D0AB
:10249000521C07E0002010BD10F8013B11F8014B61
:1024A0001B1B07D110F8013B11F8014B1B1B01D17D
:1024B000921EF1D1184610BD40EA0103024630B524
:1024C0009B0710D14FF0013400E008C208C91D1B62
:1024D0009D4315EAC41FF8D013F0FF0102F8011B59
:1024E0000DD01B0AF8E711F8013B002B02F8013B65
:1024F00005D011F8013B002B02F8013BF3D130BDB0
:1025000010B5431C02E010F8011B71B18107FAD12C
:102510004FF0013202C88C1A8C4314EAC211F9D070
:10252000C01A0A0603D0C01E10BDC01A10BD0A048E
:1025300001D0801E10BD0902FCD0401E10BD421EFD
:1025400012F8013F002BFBD111F8013B002B02F8E0
:10255000013BF9D17047032A40F2308010F0030CA0
:1025600000F0158011F8013BBCF1020F624498BFE6
:1025700011F801CB00F8013B38BF11F8013BA2F183
:10258000040298BF00F801CB38BF00F8013B11F0FE
:10259000030300F0C184083AC0F0088051F8043BFE
:1025A000083A51F804CBA0E80810F5E7121D5CBF0B
:1025B00051F8043B40F8043BAFF30080D20724BF3E
:1025C00011F8013B11F801CB48BF11F8012B24BFD2
:1025D00000F8013B00F801CB48BF00F8012B704721
:1025E00002F0FF0343EA032242EA024200F002B88B
:1025F0004FF000020429C0F0128010F0030C00F02C
:10260000BF84CCF1040CBCF1020F18BF00F8012B01
:10261000A8BF20F8022BA1EB0C0100F0B1BC5FEACF
:10262000C17C24BF00F8012B00F8012B48BF00F843
:10263000012B704710B5044610F0030F08BF11F0CE
:10264000030F40F015804FF0013E121FC0F20E80C4
:1026500051F8043BA3EB0E0C2CEA030C1CEACE1C35
:1026600008BF40F8043BF0D0A1F1040102F10402DC
:10267000521E08DB11F8013B002B00F8013BF7D19B
:102680001146FFF7B5FF204610BD00004FF0013C9A
:1026900050F8042B51F8043B9A4221D1A2EB0C03D1
:1026A000934313EACC1317D150F8042B51F8043B91
:1026B0009A4215D1A2EB0C03934313EACC130BD12E
:1026C00050F8042B51F8043B9A4209D1A2EB0C03B9
:1026D000934313EACC13DBD04FF00000704700BFE8
:1026E000D01A01BAB1FA81F101F0180122FA01F011
:1026F000CB40C1F12001DBB2C0B2C01A2CFA01F309
:10270000D11A914311EAC311E6D17047704770475F
:102710007047704710B500F05DFC006810BD10B543
:10272000044600F057FC046010BD09684A0501D555
:1027300040B27047C905FCD500B2704709684A0528
:1027400001D5C0B27047C905FCD580B270472DE9EC
:10275000F0470D4699469246044600F12408016868
:10276000880604D5E06921F01001216000E0012015
:10277000A84201DD471B00E00027A1697A1902EB9E
:102780000900081AA0612078C00602D42046FFF78D
:10279000BBFC002608E0D4E901211AF806009047A6
:1027A000206A401C761C20624E45F4DB2078C0066F
:1027B0000AD52046FFF7A8FC06E0D4E90121302025
:1027C0009047206A401C2062381EA7F10107F4DC04
:1027D00007E0D4E9012118F805009047206A401C61
:1027E0002062281EA5F10105F3DC2046FFF7A2FCBC
:1027F0002078000602D50220BDE8F0870120FBE723
:1028000011680268006A530501D508700AE0D30513
:1028100001D5088006E0130603D5C217C1E90002FE
:1028200000E008600120704770472DE9FF4F0C461B
:102830001E464FF0FF378BB0D2E90001DDF8608013
:102840000A908A46C1F30A5505B93D46002108465B
:102850004FF00000BAF1000F00F4400005DA00EB81
:1028600080004FF4400101EA50004FEA9059B9F15D
:10287000010F00DDB9460A9850EA4A000ED044F62E
:102880001050A5F2FF3545432F14B8F1000F1ED0AC
:102890007542291E1EDDC9F100021CE0B8F1010FCE
:1028A0004FF0000001D0302103E0F24305E0215455
:1028B000401CB042FBDB30460022002121540B9922
:1028C000C1F80880C1E900200FB0BDE8F08FBD1B42
:1028D0006D1CDEE74A4600DA694206A800F042FCB9
:1028E00006AB93E8070003AB83E8070050460A995C
:1028F00001F09BF98DE80700A0F500501F3800900B
:102900000398002D09DD42F21F014A46084403A93D
:102910000390684601F025FC08E0A0F500504A4607
:102920001F3803A90390684601F043FC8DE80700B7
:102930000004000C03D04FF0FF30410800E01046C7
:10294000B8F1000F03D00022009215461EE0751E5C
:1029500005D400F043FB303262556D1EF9D5B34605
:102960000122084302D000227F1C04E02078302896
:1029700001D100227F1E002A099786D01DE0112D6B
:1029800007DA00F02BFB303262556D1C50EA010271
:10299000F5D1084302D00098C8B10EE00021681EAE
:1029A00005E0235C625C63542254401E491C814252
:1029B000F7DBAB46A81B401E0990002004F80B0073
:1029C0000B98099AC0F80880C0E9002B7CE7112613
:1029D0004FF0000859E72DE9F04F88460446D21D14
:1029E00022F0070191B0D1E90001CDE90A010DF013
:1029F000AFFB02460B98C00F01D02D2007E02068E6
:102A0000810701D52B2002E0202101EAC000032A22
:102A1000099001D0072A05DB03464146204600F015
:102A20002BFB0BE12078800601D5E06900E0062051
:102A3000B8F1650F814606D0B8F1660F18D0B8F12D
:102A4000670F70D131E00020B9F1110F009001DB68
:102A5000112301E009F101030AAA01A90CA8FFF75B
:102A6000E4FEDDE90C70002609F10105834647E02C
:102A700001204B4600904FF000470AAA01A90CA87C
:102A8000FFF7D3FEDDE90DB00C995D46002610B9C5
:102A900009F101000D18B9EB050003D4C0F1FF36B0
:102AA00009F10105A5EB09002BE0B9F1010F01DAED
:102AB0004FF001090020B9F1110F0090484601DDE7
:102AC000112300E003460AAA01A90CA8FFF7ADFEF6
:102AD000DDE90C704D4600268346207800070AD4B5
:102AE000AB4500DA5D4601A8012D04DD411911F85E
:102AF000011C302907D04F4502DA17F1040F04DA20
:102B0000012082460FE06D1EEEE7002F02DCED1B78
:102B10003E4403E0781CA84200DD7D1CB81B00F198
:102B2000010A4FF000472078000703D4AA4501DBD3
:102B30004FF0FF3A0021B7F1004F0DF143088DF837
:102B4000431024D002202B23002F01DA7F422D23B3
:102B50000A21021EA0F1010000DC5FB197FBF1FC2D
:102B600097FBF1F201FB1C7C17460CF1300C08F8C6
:102B700001CDEEE7A8F1010003702188090501D518
:102B8000452100E06521A0F1010800F8011C099829
:102B90000FA9A1EB0807FF1D00B10120411901EBAE
:102BA000EA70A1693844081A401EA0612078C00666
:102BB00002D42046FFF7A8FA099828B1D4E90121E8
:102BC0009047206A401C20622078C00622D520460B
:102BD000FFF79AFA1EE0002E04DBB34502DD01A8E0
:102BE000805D00E03020D4E901219047206A401C3C
:102BF0002062761CAAF101005FEA000A0AD100F007
:102C0000E5F9C0680168405CD4E901219047206A79
:102C1000401C2062281EA5F10105DCDC07E0D4E998
:102C2000012118F8010B9047206A401C2062381ED1
:102C3000A7F10107F3DC2046FFF77CFA032011B06F
:102C400043E6000001694A1C02610878704700B53C
:102C50008FB0CDE901310021059105497944CDE9D5
:102C6000031011466846FFF725FB0FB000BD0000BA
:102C7000E5FFFFFF0A6802F8010B0A60704710B514
:102C8000436913B1AFF3008001E0FFF764FA01205C
:102C900010BD127800F124010A7000224A7001224E
:102CA000EDE711684FF0FF32E9E70000074B70B520
:102CB0000D467B44FFF7CBFF0446284600F0C0FAE0
:102CC00010B14FF0FF3070BD204670BD1788010075
:102CD0002DE9FF5F15468A460446DFF8AC80F844CC
:102CE0000027D8E900103E46CDE9001010E03AF880
:102CF00016106A4602A800F0A7FA411C07D02178F6
:102D0000890603D5E269391891420DD80744761C2B
:102D10002078800602D5E069B84205DDAE42E6DBE8
:102D20003AF816000028E2D1A069C01BA061204635
:102D3000FFF7EAF9D8E90010CDE90010002017E00C
:102D40003AF818106A4602A800F07EFAB0F1FF3F88
:102D500081460BD000250DF1080B05E0D4E90121D7
:102D60001BF8050090476D1C4D45F7D308F1010095
:102D7000B0428046E4DB206A384420622046FFF7F8
:102D8000D9F9BDE8FF9F00001E4904002DE9F0417C
:102D90008046D21D22F007020025D2E90002F52963
:102DA00015A614D0011E72F1000106DA0023D0EB43
:102DB000030063EB020211A608E0D8F800108B07AD
:102DC00001D50FA602E0490701D50EA6012511463F
:102DD000002408F1240704E000F000F930323A55ED
:102DE000641C50EA0102F7D12B4632462146404688
:102DF000BDE8F041FFF7ABBC000000002D00000073
:102E00002B0000002000000030B4002100F1240459
:102E100008E002F00705D208303542EA4372DB08C9
:102E20006554491C52EA0305F3D10468002310A23B
:102E3000250708D504F020040C4304D0C4690123FD
:102E40000CA2641EC46130BCFFF781BC10B50446FF
:102E500021461068FFF772FC02462046BDE810408C
:102E60000023D1E7D21D22F00701D1E90023CBE7EF
:102E700000000000300000000FB4002300B589B04E
:102E80000CA900910B99CB60204B7B440693204BFF
:102E90007B44079304236FF00042CDE901321D4AC1
:102EA0007A446B460892024600202CF0A0FE09B03E
:102EB0005DF814FB70B506464FF0FF3015460C4622
:102EC000324686B00091CDE90101694600200490A8
:102ED00004A8FFF7D1FF03460498211825B108B1D3
:102EE0000A4600E022462A6000280DD0002B02DDB1
:102EF0000098884208D03246081B69460094CDE904
:102F0000010404A8FFF7B8FF06B070BD97020000E7
:102F1000AF020000C301000010B5203AC0F00B80E2
:102F2000B1E81850203AA0E81850B1E81850A0E8CD
:102F30001850BFF4F5AF5FEA027C24BFB1E8185027
:102F4000A0E8185044BF18C918C0BDE810405FEA97
:102F5000827C24BF51F8043B40F8043B08BF704713
:102F6000D20728BF31F8023B48BF11F8012B28BF18
:102F700020F8023B48BF00F8012B70474FF00002D9
:102F800000B5134694469646203922BFA0E80C505F
:102F9000A0E80C50B1F12001BFF4F7AF090728BF3A
:102FA000A0E80C5048BF0CC05DF804EB890028BFB6
:102FB00040F8042B08BF704748BF20F8022B11F0DF
:102FC000804F18BF00F8012B704700000048704781
:102FD00030FB00200048704710FB002030B5B0F1F6
:102FE0000A024FEA900E71F100034EEA817EB0EBC7
:102FF0000E0061EB91014FEA101E4EEA017E10EBCC
:103000000E0041EB11114FEA102E4EEA016E10EB4B
:103010000E0041EB11214FEA104E4EEA014E10EB2B
:103020000E0041EB1141401841F100014FEAD00080
:1030300040EA41704FEAD10110EB80054FEA81046C
:1030400044EA907444EB01046D1944EB0404521BF0
:10305000A3414FF0000348BF0A3200D530BD401CE9
:1030600041F1000130BD10B5044600F037F90068A9
:10307000005D00F0010010BD2DE9F0411F4604463F
:1030800003260168072A01F4006004DB08B116A5D5
:1030900005E016A503E008B115A500E015A521F08F
:1030A00010002060A069C01EA0610FB1401EA06189
:1030B0002046FFF729F84FB1D4E90121384690475F
:1030C000206A401C2062C01C206206E0206AFAE7E9
:1030D000D4E9012115F8010B9047761EF8D220465D
:1030E000FFF728F8BDE8F0814E414E006E616E009A
:1030F000494E4600696E660010B5436913B1AFF3DF
:10310000008001E0FFF7E4FD012010BD128800F10E
:10311000240182840022C2840122EDE711684FF06D
:10312000FF32E9E7426842B1016811F8013B23B17F
:10313000521EC0E90012184670470121C160881E66
:10314000704742685AB1C368016843B983688B42CB
:1031500005D0491E521CC0E90012002070474FF0F4
:10316000FF3070472DE9F047814616468AB0334854
:1031700078440DC88DE80D0030487844801C03ACBD
:103180000DC884E80D0041F69B300844372190FBC0
:10319000F1F290FBF1F5A5F1800501FB12041B3C57
:1031A00002D56442012000E00020DFF890A08046B4
:1031B0000027FA44AAF1BE0A0DE0E00709D0324622
:1031C000684607EB47010AEB810100F0F2FF8DE84A
:1031D000070064107F1C002CEFD1184F7F44AC3FD8
:1031E00018E0E80714D007EB04100DF1180A90E876
:1031F0000E008AE80E00C068F04201D198190890CC
:10320000324606A903A800F0D4FF03AB83E8070009
:103210006D10641C002DE4D132466946B8F1000FF0
:1032200003A802D000F09DFF01E000F0C2FFC9E951
:103230000001C9F808200AB0BDE8F0873047040053
:10324000007B00F08000704770B516460C460546BE
:1032500000F044F8036893F80101012806D0FF2C20
:103260000FD8185D68B101202C7070BDD3F807012C
:103270003246214603F2071303442846BDE8704056
:1032800018474FF0FF3070BD0048704710FB00201A
:103290007546FFF7F9FFAE4605006946534620F034
:1032A0000700854618B020B5FDF716F8BDE82040A8
:1032B0004FF000064FF000074FF000084FF0000BF2
:1032C00021F00701AC46ACE8C009ACE8C009ACE8A5
:1032D000C009ACE8C0098D467047000010B5FFF783
:1032E00075FE001D10BD00BF0DB302002DE9FF4F9C
:1032F000064689B00878FF2806D0491C2D2805D03D
:1033000000244FF0000908E000200CE00124F8E759
:1033100009EB8903491C00EB43090878FF28F7D122
:1033200014B1C9F100008146107800252C46AA4648
:1033300029462D2801D02B2804D1521C2D2813D02A
:10334000002082468B461078FF280FD04FF0000CEB
:103350000A21521CA5FB017804FB018105FB0C111D
:10336000C5194BEB0104EEE70120EAE7002108460E
:103370004FF00000BAF1000F02D000EB80004008CF
:10338000C0F38158B8F1010F01DD4FF0FF380C9800
:1033900009EB000755EA040009D04FF0020917F5C0
:1033A000FA7F0BDA4FEACA70C6E900B012E04FEAC2
:1033B000CA70C6E900B00DB0BDE8F08FB7F5FA7F6E
:1033C0000DDDF0487844D0E90010C6E9001040EA6D
:1033D000CA707060FFF7FEFDC0F80090EBE7391E81
:1033E00002DAC8F1000200E0424600DA794206A89B
:1033F000FFF7B8FE06AB93E8070003AB83E80700CE
:1034000044F23E005BEA04010090584604D144F2C5
:103410001E012C465D460091210C0904014306D192
:103420000099240444EA15442D041039009104F055
:103430007F41014306D10099240244EA15642D021C
:103440000839009104F07041014306D1009924012C
:1034500044EA15742D01091F009104F04041014315
:1034600006D10099A40044EA9574AD00891E00912C
:1034700004F00041084304D100986D196441401ED6
:10348000009042466846002FCDE9014503A902DDC0
:1034900000F0A3FE01E000F078FEBAF1000F044650
:1034A0000D4601D084F0004440F2FF7724F0004044
:1034B000284303D0C4F30A50B84212D1FFF78AFD63
:1034C000C0F80090C4F30A50B8420AD1AE4878441C
:1034D000D0E90010C6E9001004F000410843706014
:1034E00069E7C6E9005466E72DE9FF4F1F464FF034
:1034F000000A4FF0FF38454691B0D7E90146CDF8B4
:103500003CA0FFF763FDC0680168405C1090B9699A
:1035100012986D1C8847396A814688470028F6D181
:10352000B9F1FF3F0AD0002E24F4D06411DDB9F1C7
:103530002B0F08D0B9F12D0F0BD102E0404615B08A
:103540003AE744F48064B96912986D1C8847761E86
:103550008146600504A901D52D2000E02B20002E16
:1035600001F1010B0DF130088DF810003FDDB9F1CC
:10357000690F08D0B9F1490F05D0B9F16E0F02D02B
:10358000B9F14E0F1CD13B4601A8009580E85002CE
:10359000DDE912126FF002002CF02DFBC11CCED120
:1035A0000EE0B96912986D1C884781461398761E03
:1035B00044F4007405600F98401C002E0F9016DD37
:1035C000B9F1300FEDD0B9F1780F02D0B9F1580F41
:1035D0000DD10F9801280AD13B46CDE90054DDE911
:1035E0001212001F02962CF004FBC11CA7D11099E7
:1035F00089453ED144F0800406E01399681CAAF185
:10360000010A44F400740860B9696D1C1298761EB2
:10361000884730288146F0D02BE01099894505D1A4
:10362000200603D4761E44F0800418E048460DF0CE
:1036300092FA08B3761E0DF123018B4544F4007411
:1036400008D2A9F130000BF8010B200607D5AAF12A
:10365000010003E0200602D40AF101008246A00521
:1036600002D51399681C0860B96912986D1C8847C7
:103670008146002ED1DC53E0002E51DDB9F1650FFB
:1036800002D0B9F1450F4BD1A00549D5B9696D1CE0
:103690001298761E24F440748847002E81460CDD73
:1036A0002B2804D0B9F12D0F07D144F48074B969E7
:1036B00012986D1C8847761E8146E00501D52D21A4
:1036C00000E02B2108F8011BCDF8008021E0761ED8
:1036D0000DF13901884544F400740CD2A9F1300091
:1036E00010F0FF0088F8000002D10099884509D940
:1036F00008F1010806E0E00501D5244801E042F2A6
:103700000F708246B96912986D1C884781461398DC
:103710000560002E04DD48460DF01DFA0028D6D1C4
:10372000F96912988847FF2053468BF8000088F803
:10373000000000200A900B9004AA0CA90AA8FFF729
:10374000D5FDA00502D46FF00100F8E614F0240FB7
:103750000AD0E00714D13868DDE90A12031D3B6086
:103760000068C0E900120BE00AA968460DF09BF959
:10377000E00705D13868009A011D396000680260D1
:103780002846DCE63082040026810400F1D8FFFFE1
:103790000446AFF300802046FCF787FD2DE9FF4F7C
:1037A0001F464FF03C0987B04FF00042DDE914108E
:1037B00001F10108DDF858A002EA40500390002012
:1037C00004908346054604460590B969461E08984C
:1037D0008847AAF1010A0290BAF1000F37DD02987A
:1037E0002E2815D0102100F012FA00282ADB4FF005
:1037F000010B0499014316D0B9F1000F0BDB4A46C7
:10380000C11700F0F1F905430C43A9F1040905E0E3
:103810000120059007E008B145F001050120049062
:10382000059800B9361DB969089808F1010888475C
:10383000BBF1000FAAF1010A0290CDD00999C1F89D
:103840000080C9E70298702808D0502806D0F9698E
:1038500008988847BBF1000F14D04FE00020029079
:103860000120BBF1000F049009D0B969089808F154
:1038700001088847AAF10109B9F1000F07DCF969CD
:10388000089888476FF001000BB0BDE8F08F2B2837
:1038900004D02D280CD14FF0FF300490B96908985E
:1038A00008F101088847A9F10109B9F1000FE6DD27
:1038B000411CE4D00A2100F0AAF90028DFDB0299BC
:1038C00008F1010801EB810100EB41000290B969A8
:1038D000089888470A2100F09AF9099AA9F1010984
:1038E000B9F1000FC2F8008001DD0028E7DAF969BC
:1038F000089888470499029800FB016655EA04007D
:1039000004D004F04041090002D006E0039898E09A
:10391000A40044EA9574AD00B61E04F0004108000E
:1039200002D16D196441761E159810F0240F03D052
:103930004FF00B095C4803E04FF028096FF07D0061
:103940008246564507DAAAEB06018944B9F1410FD0
:1039500001DD4FF0410901200021A9F1010200F031
:1039600043F9024628400B462140084301D001217B
:1039700000E00021501E029143F1FF312840214018
:10398000084301D0012000E000200299834651EA5B
:103990000B014FD0002108464FF00000039900F4BE
:1039A000400039B100EB80004FF4400100EBD070D3
:1039B00001EA60008015012802DD4FF0FF3000E0D1
:1039C00013D0401C36D0029860B3BBF1000F0CD16D
:1039D0004A460120002100F007F928402140084311
:1039E00001D0012000E00020E0B101204A46002182
:1039F00000F0FAF8034640190A4661412D1A8C413D
:103A000011D3B9F1400F09DD159810F0240F02D041
:103A1000AAF1340603E0AAF1170600E0761C00259F
:103A20004FF0004406E05B1E42F1FF3220EA03053E
:103A300021EA0204CAF10100B04206DA1B490398E8
:103A400008430190002000900EE0039AC4F3D321B4
:103A5000E80A0A43164940EA44500A433146CDE990
:103A6000000268460DF06CF8159810F0240F0BD08A
:103A70001598C00715D13868DDE90012031D3B60B9
:103A80000068C0E900120CE002A869460DF00BF8CE
:103A90001598C00705D13868029A011D3960006881
:103AA00002604046F0E6000002FCFFFF0000F07FED
:103AB0000000F03F2DE9FF4F92461D4685B04FF0C4
:103AC0000041DDE9124BDDE914727F1E01EA4B5023
:103AD000414940F0FF4940EA0108002122F020005E
:103AE0004928049102D04E2828D04CE03BA0012662
:103AF00007C88DE80700A9690698641C88477F1EDF
:103B0000014606D41DF8060018B121F020018142BB
:103B10000BD0E96906988847032E34D0082E32D09E
:103B20006FF0010009B0BDE8F08F761C032E01D0C4
:103B3000082EE0D1601CCAF80000DCE7A9690698ED
:103B4000641C88477F1E2AD420F02000412826D1FB
:103B5000A9690698641C88477F1E20D420F02000A5
:103B60004E281CD1A9690698641C88477F1E48F41A
:103B7000002849F48009CAF8004001D4282806D05A
:103B8000E969069888475FEACB7012D022E0A969FC
:103B90000698641C88477F1E01D4002803DAE9696F
:103BA00006988847BCE72928F1D1641CCAF8004070
:103BB000E9E71BF0240F07D028680499031D2B6048
:103BC0000068C0E9001805E02868021D2A60006846
:103BD000C0F800902046A5E70000F07F494E464916
:103BE0004E49545900000000B2F120030AD5C2F139
:103BF000200301FA02F120FA03F300FA02F041EA8D
:103C00000301704700FA03F14FF0000070473A28B3
:103C100000D2303820F02002412A01D3A2F137002F
:103C2000884201D34FF0FF3070475FEA400C08BF75
:103C300091F0000F4FEA8C234FEAC12243EA515121
:103C40004FEA1C5018BF00F5F0404FEA300018BF93
:103C500041F000415FEA6C5C00F02980BCF1FF3F5D
:103C600008BF40F080407047130C06BF12044FF0AD
:103C7000100C4FF0000C130E04BF12020CF1080CD4
:103C8000130F04BF12010CF1040C930F04BF920038
:103C90000CF1020CD30F04BF52000CF1010C1146C1
:103CA0004FF00002A0F11F00A0EB0C00704711F0D4
:103CB000004F08BF704731F000413FF4D5AF0B0C07
:103CC00006BF09044FF0100C4FF0000C0B0E04BFA0
:103CD00009020CF1080C0B0F04BF09010CF1040CD4
:103CE0008B0F04BF89000CF1020CCB0F04BF4900FD
:103CF0000CF1010CCCF12003A0EB0C0022FA03F331
:103D000002FA0CF241EA030100F10100704720F0D1
:103D10007F4C80EA030023F07F47ACEB070303F5F9
:103D20007C5300F0004003F1FF032DE980494FEA86
:103D3000154B09B44FEA144325EA0B4E24EA034815
:103D40000FF2042606EB132749083E785FEA320299
:103D500003FB0667C7F5000707FB06F64FEA543773
:103D60004FEAD64606F1020607FB066CCCF1005C72
:103D70004FEA1C472CEA074C07FB06F40CFB06F540
:103D800004EB15464FEA961634BF00204FF0004072
:103D90004FEAD13706FB07FC4FEA1C4C0CFB0BF734
:103DA000D21B03FB0CF761EB07010CFB0EF7B0EB2A
:103DB000074072EB17420CFB08F734BFA2EB074237
:103DC000B2EB074261EB17414FEA0C444FEA91070F
:103DD00006FB07FC4FEA1C4C0CFB0BF7B0EBC74093
:103DE00072EB573203FB0CF734BFA2EBC742B2EBC6
:103DF000C74261EB57310CFB0EF7B0EBC70072EB1B
:103E000057720CFB08F734BFA2EBC702B2EBC70234
:103E100061EB5771039F4FEA816141EA921104EB14
:103E2000CC044FEAD1374FEA826206FB07FC42EA34
:103E300090124FEA80604FEA1C4C0CFB0BF7D21B30
:103E400003FB0CF761EB07010CFB0EF7B0EB07402F
:103E500072EB17420CFB08F734BFA2EB0742B2EB40
:103E6000074261EB17414FEA8C554FEA910704EB8B
:103E70009C2406FB07FC4FEA1C4C0CFB0BF7B0EB39
:103E8000C74072EB573203FB0CF734BFA2EBC742BB
:103E9000B2EBC74261EB57310CFB0EF7B0EBC7003A
:103EA00072EB57720CFB08F734BFA2EBC702B2EB00
:103EB000C70261EB577115EB4C254FEA816141EA6E
:103EC00092114FEA82624FEAD13742EA901206FB22
:103ED00007FC44F100044FEA80604FEA1C4C0CFBE5
:103EE0000BF7D21B03FB0CF761EB07010CFB0EF782
:103EF000B0EB074072EB17420CFB08F734BFA2EBA4
:103F00000742B2EB074261EB174115EB1C154FEA74
:103F1000813141EA92414FEA823242EA90424FEACD
:103F200080304FEA0C7644F1000448EA03434EEA3D
:103F30000B484FF0000EB2EB080C71EB030724BFE7
:103F4000624639464EEB0E0E4FF0000B0018524100
:103F500049414BEB0B0BB2EB080C71EB03077BF108
:103F6000000B24BF624639464EEB0E0E4FF0000B9D
:103F70000018524149414BEB0B0BB2EB080C71EBB3
:103F800003077BF1000B24BF624639464EEB0E0E51
:103F900051EA020718BF46F0010616EB0E7655F1FE
:103FA000000254F1000103D5BDE88901BDE8008895
:103FB000BDE88901BDE80048B619524141EB010155
:103FC000A3F10103704780807F7E7D7C7B7A7978C6
:103FD000777676757473727171706F6E6E6D6C6CCE
:103FE0006B6A6A6968686766666564646363626170
:103FF0006160605F5F5E5E5D5D5C5C5B5B5A5A59F1
:10400000595858575756565555555454535352525C
:104010005251515050504F4F4F4E4E4D4D4D4C4CB4
:104020004C4B4B4B4A4A4A494949484848474747FD
:10403000474646464545454444444443434343423A
:10404000424242414141000046EA0646A3F5705310
:104050004FEA164646EA42564FEAD22242EA415217
:1040600010B54FEAD121A3F1010300F017F820F0B9
:10407000004000F1010C00F0004701EB0050114638
:10408000BCF5006F40EA070000D210BD02484FF0B7
:10409000000140EA070010BD0000F07F002B26D48D
:1040A000770021D01CB54FEA370703B44FF010005A
:1040B0004FF010014FF000000FBCBDE810400BF1B5
:1040C000010BBBF1010F08BF5FEA170722BF12F116
:1040D000010211F101014FF0004143F1000300F032
:1040E000004043EA00007047F9D35708DAE746EA90
:1040F000064613F1400F4FEA16461FDD13F1200F5D
:10410000DFBF16430A46002120335B42C8D0C3F10B
:10411000200746EA064602FA07F74FEA164646EA3D
:104120000706C3F1200722FA03F201FA07F721FA82
:1041300003F14FF0000342EA0702B1E746EA020644
:1041400046EA06464FEA164646EA0106BCBF46EA7C
:104150000646360C4FF000034FF000024FF000010E
:104160009EE72DE9C048934630B491E8380007C86F
:1041700031EA400C48BF34EA430C03D5FFF7C7FDD2
:10418000FFF78CFFF0BCBDE800882DE9C0489346DE
:1041900030B491E8380007C831EA400C48BF34EA2F
:1041A000430C03D5FFF7B3FDFFF74EFFF0BCBDE8AE
:1041B00000882DE9C048934630B491E8380007C81C
:1041C00010F0804F08BF13F0804F03D100F019F8B2
:1041D000FFF764FFF0BCBDE800882DE9C0489346B6
:1041E00030B491E8380007C810F0804F08BF13F0D2
:1041F000804F03D100F005F8FFF726FFF0BCBDE8C3
:10420000008820F07F4780EA030023F07F4C07EB13
:104210000C03A3F57C5300F00040A3F1FE0392F0E1
:10422000000F00F0B38095F0000F00F077802DE9CB
:1042300001494FEA11404FEA144621EA004800FBC9
:1042400006FC24EA064708FB06F607FB08F800FB15
:1042500007F718EB06484CEB164C4FEA124B18EBDD
:1042600007484FEA15464CEB174022EA0B4E0BFB72
:1042700006FC25EA06470EFB06F607FB0EFE0BFBC7
:1042800007F71EEB064E4CEB164C4FF000061EEBEC
:10429000074E4CEB174B18EB0B0840F1000018EBE6
:1042A0000E0B58EB000840F100008F1A4FF0000190
:1042B0003CBFC943661B14BFB5EB040C00213CBFD7
:1042C000C943F61B4FEA17444EEA8E0E27EA04450F
:1042D0004FEA1C4704FB07622CEA074C05FB07F773
:1042E0000CFB05F604FB0CFC16EB074642EB1742F1
:1042F00016EB0C4642EB1C421BEB060658EB020287
:10430000414146EA9E0601D5BDE80189B6195241F0
:1043100041EB0101A3F10103BDE801894FEA144516
:104320004FEA114724EA054621EA074C05FB07F44A
:1043300006FB07F70CFB06F105FB0CFC11EB074134
:1043400044EB17444FEA124711EB0C4144EB1C4479
:1043500022EA074C05FB07F206FB07F70CFB06F603
:1043600005FB0CFC16EB074642EB174216EB0C461E
:1043700042EB1C456A1854F1000148BF7047B6195A
:10438000524141EB0101A3F10103704795F0000F89
:1043900037D04FEA11424FEA144721EA024624EA95
:1043A000074C02FB07F106FB07F70CFB06F402FBC8
:1043B0000CFC14EB074441EB17414FEA154714EB93
:1043C0000C4441EB1C4125EA074C02FB07F506FBB8
:1043D00007F70CFB06F602FB0CFC16EB074645EB59
:1043E000174516EB0C4645EB1C42121951F1000122
:1043F00048BF7047B619524141EB0101A3F10103D7
:1044000070474FEA14454FEA114724EA054621EA6E
:10441000074C05FB07F106FB07F70CFB06F24FF014
:10442000000605FB0CFC12EB074241EB174112EBB7
:104430000C4251EB1C4148BF7047921841EB0101FF
:10444000A3F10103704710B5FF2000F022F85528B2
:104450000AD05521FF2000F04DF8FF2000F019F898
:10446000552801D0012010BD002010BD01F0CABDAB
:1044700070B515460E46044608E02046641CA4B2FA
:1044800000F007F86D1E06F8010BADB2002DF4D157
:1044900070BD10B5044601F055FE200AA02101EBC5
:1044A0004000C0B201F01EFE01F08EFEE0B201F04D
:1044B00019FE01F089FE01F045FEA12001F012FE77
:1044C00001F082FE002001F0D7FD044601F05AFE03
:1044D000204610BD70B514460D46064606E0297804
:1044E000304600F007F8761CB6B26D1C641EA4B20C
:1044F000F5D270BD70B50D46044601F023FE200ACA
:10450000A02101EB4000C0B201F0ECFD01F05CFE27
:10451000E0B201F0E7FD01F057FE284601F0E2FDB0
:1045200001F052FE01F02EFEBDE8704042F2107024
:1045300012F068BA2D48816941F400418161C16877
:1045400041F40041C160C16821F40041C16041688B
:1045500021F440414160416841F4004141602448F8
:104560000168244A1140016001680160016821F47A
:1045700080710160001D016821F002010160016885
:1045800021F460210160016841F46021016001684B
:1045900041F480110160016821F400610160144957
:1045A00028310A6822F470020A600A680A60104919
:1045B0000C310A6822F4E0120A600A6842F4E01240
:1045C0000A60016841F001010160016841F00801E1
:1045D000016009490A681207FCD4016841F004012E
:1045E000016001684907FCD47047000000100240D8
:1045F000043C0140FFFFF000082401403748816976
:1046000041F00401816136490A6822F0F0020A6033
:10461000816941F400718161C16841F40071C16038
:10462000C16821F40071C160416821F440414160DA
:10463000416841F4004141602A4801682A4A11401A
:10464000016001680160016821F480710160001D52
:10465000016821F002010160016821F4602101601C
:10466000016841F460210160016841F4801101603A
:10467000016821F400610160016841F400010160FA
:10468000184928310A6822F470020A600A680A6030
:1046900014490C310A6822F003020A600A6842F0E9
:1046A00038020A60011D0A6822F4E0120A600A68F2
:1046B00042F4E0120A60016841F001010160016802
:1046C00041F00801016001680907FCD4016841F06C
:1046D0000401016001684907FCD4704700100240E2
:1046E0000008014004240140FFFFF00009488169EF
:1046F00041F0080181610848016821F00F01016063
:10470000016841F00301016004490020C1F8A001E3
:104710007047000000100240040C0140008021425C
:1047200010B578B14FF48054012805D002280FD17C
:104730001021012009F0E0FD2146BDE810400220D3
:1047400009F092BD1021BDE81040012009F0D4BD50
:1047500010BDC1B2000A40EA0120704710B5604B9D
:104760000020604C598803E05A68125C2254401CB7
:104770008842F9D35B48626820301F294260A268F2
:10478000826007D00220FFF7CBFF00202060607B13
:104790001A2221E0E17B282901D02A290AD1D4F864
:1047A0001100227D00BA20F0FF0010439860E08ADB
:1047B00040BAD8604C4A2068904252D14B4A607B44
:1047C0001268904203D8A27B0AB1102A0DD90220A8
:1047D000FFF7A6FF607B2422052109F0D3FD00210D
:1047E000BDE81040012009F0ADBD252958D01ADCE4
:1047F000152971D00DDC08296ED005DCB9B3032969
:1048000036D004292DD163E00A2965D0122928D198
:1048100032E01A390A2924D2DFE801F03632235E69
:1048200032232323233E8A2956D00EDC552953D028
:1048300006DC28293CD02A2940D02F2911D143E079
:104840005A2925D088290CD146E0A82944D004DC77
:104850008F2941D09E2904D13EE0AA293CD0AF291E
:104860003AD00220FFF75CFF607B2022B4E71BE018
:10487000BDE8104008F02CBBBDE8104008F046BA77
:10488000BDE8104008F030BBBDE8104008F078BA31
:10489000BDE8104008F06EBABDE8104008F0E2BA7A
:1048A000BDE8104008F0A6BABDE8104008F020BBF3
:1048B000D3E90212BDE8104008F068BAD3E9021249
:1048C000BDE8104008F04ABBBDE8104008F02CBB22
:1048D000BDE8104008F002BABDE8104008F030BA58
:1048E000D004002098FA0020555342433805002098
:1048F0002DE9F84F0020ADF800004BF6BF7648F2E6
:1049000080084A4D4A4C40F68F7ADFF8289148F6E5
:104910000F7B494F2FE0088810F00F0089F8000046
:1049200032D007EB8001D1F8002CADF80020BDF8A3
:10493000002012040BD5D1F8002C02EA0A02C1F8BB
:10494000002C3E4901EB800050F8040C8047BDF874
:10495000000000060FD599F8000007EB8001D1F8A0
:10496000002C02EA0B02C1F8002C354901EB800053
:1049700050F8040C80472D484430006831490880C5
:104980000004C8D4BDE8F88F28682080208800F093
:1049900030006080208800F440502080286830403B
:1049A00080F4005080F0200040EA08002860088869
:1049B000C00617D4296801EA0B01296001F034FC14
:1049C00028E02188890401D580F400506188C90657
:1049D00028D46188890601D580F0200040EA0800CB
:1049E0002860CFE72868ADF80000BDF8000000059A
:1049F00006D5296801EA0A01296009F0D5FC09E019
:104A0000BDF800000004B6D5286800EA0A00286056
:104A100007F0B4FB286821883040C904D1D580F460
:104A20008050CEE780F01000D3E70000005C00402B
:104A3000FE030020EC030020005000401C05002075
:104A400000050020FC04002070B50F4C0025C4F8C0
:104A500084510E48016821F0F0010160016841F0C5
:104A600030010160052004F5C27411F0CBFF084845
:104A7000C0F8A451052011F0C5FF012020600520D9
:104A800011F0C0FF256070BD00802142041C014070
:104A9000008023421348816941F0080181618169E6
:104AA00041F0800181611048016821F0F00101604E
:104AB000016841F0300101600C48016821F0F0010B
:104AC0000160016841F03001016007480C30016865
:104AD00041F00201016005480830016841F40071AD
:104AE0000160704700100240000C0140041C0140AE
:104AF00070B50F4C0026C4F884610E48016821F09F
:104B0000F0010160016841F030010160052004F509
:104B1000C27411F077FF08480125C0F8A4510520A0
:104B200011F070FF2560052011F06CFF266070BD4C
:104B300000802142041C0140008023422DE9F047FF
:104B4000824618480024016821F0F00101600168E4
:104B500041F0800101601E2011F054FF0025124E2B
:104B6000DFF848902F464FF00108C6F88471052001
:104B700011F048FFC6F884816006040ED9F82401BC
:104B800008B1641CE4B26D1CEDB2082DEDD3BAF18E
:104B9000000F04D0FFF758FF2046BDE8F087FFF76D
:104BA000A7FFF9E7041C0140008021420080234256
:104BB0002DE9F04705461548016821F0F001016034
:104BC000016841F030010160114E0027C6F8847180
:104BD000052011F017FFDFF83C8000244FF0010999
:104BE000E909C8F8A4116806050EC6F884910520E5
:104BF00011F008FFC6F88471052011F003FF641C52
:104C0000E4B2082CECD3BDE8F0870000041C01409E
:104C1000008021420080234270B50F48016821F0D6
:104C2000F0010160016841F0300101600B4E01208C
:104C3000C6F8A4010A4DC5F884011E2005F5C27509
:104C400006F5D27611F0DEFE00243460052011F066
:104C5000D9FE2C6070BD0000041C0140008023427E
:104C60000080214270B50D48016821F0F00101601B
:104C7000016841F03001016009480125C0F8845104
:104C80001E2011F0BFFE074C0020C4F8A40105202F
:104C900004F5D27411F0B6FE256070BD041C01400D
:104CA000008021420080234270B512480024016830
:104CB00021F0F0010160016841F0800101600E4DBA
:104CC0000120C5F8A4010D4EC6F8840107E0641C5C
:104CD000E4B2FA2C03D9FFF7C5FF012070BD05200F
:104CE00011F090FED5F824010028F0D1C6F8840117
:104CF00070BD0000041C014000802342008021425E
:104D0000810008480844D0F8001C490409D5D0F8AF
:104D1000001C48F68F7211404CF280021143C0F81B
:104D2000001C704700500040810008480844D0F83B
:104D3000001C490609D5D0F8001C48F68F721140B6
:104D400048F2C0021143C0F8001C704700500040F8
:104D5000810006480844D0F8001C48F68F621140D4
:104D600048F280021143C0F8001C70470050004018
:104D700000204FF48031074A02E0536B1B0602D437
:104D8000491EFAD200E019B140F2FF519163704719
:104D900003207047008001400D4A516B11F0450F10
:104DA000FBD04B0703D50420906303207047C9074D
:104DB00002D00120906370471169814201D0102018
:104DC000704740F2FF509063506900F00800704750
:104DD0000080014010B500204FF480320D4C0BE0F4
:104DE000616B11F0450F07D00AB14A0707D5A16BD7
:104DF000032041F004010BE0521EF1D2F5E7C90790
:104E000004D0A16B012041F00101A16340F2FF51E8
:104E1000A16310BD008001400849486B10F0450FA8
:104E2000FBD0400705D5886B40F004008863032061
:104E3000704740F2FF5088630020704700800140B7
:104E400030B50546174B00205A6B12F0450FFBD0CA
:104E5000540705D5986B40F004009863032030BDDB
:104E6000D20705D0986B40F001009863012030BD57
:104E70001A69AA420FD140F2FF529A635A6912F49A
:104E8000604F03D0910404D5132030BD120C0A806A
:104E900030BD510401D5102030BD1104FCD50F20C8
:104EA00030BD00000080014010B500204FF480327A
:104EB0000C4C0BE0616B11F0450F07D00AB14A07AB
:104EC00007D5A16B032041F0040108E0521EF1D286
:104ED000F5E7490604D5A16B002041F04001A1632C
:104EE00010BD00000080014070B5164800244168E4
:104EF00021F470414160416841F400414160124D2C
:104F000004E0641CE4B2012011F07CFDD5F82C0112
:104F100010B1C82CF5D30DE0C82C0BD2002404E04E
:104F2000641CE4B2012011F06DFDD5F82C0118B11C
:104F3000F02C04D3012070BDF02CF1D3FAE700204F
:104F400070BD0000002001400000244270B500F058
:104F5000A9F800F087F8FFF7C7FFCC2000F0B0F801
:104F6000BE2000F0ADF800F06DF8044600F06AF8DD
:104F7000072805D9C043E143C0B2CCB2002500E008
:104F8000012504EB002000B229F029FE0022054B88
:104F900029F08CFE29F0C6FD00B2002D01D140425F
:104FA00000B270BD0000E43F0C4810B5816941F4C7
:104FB000807181610A48416821F470414160416813
:104FC00041F440514160C16841F40061C16000F0AA
:104FD00049F8BDE81040FFF787BF0000001002400D
:104FE0000020014070B5154C606820F4704060608E
:104FF000606840F440506060114D0020C5F8AC017D
:10500000022005F5D67511F0FDFC012028606068CE
:1050100020F470406060606840F4004060600C20E4
:1050200011F0F0FC55F8800C08B1012400E00024D8
:10503000322011F0E7FC204670BD00000020014046
:105040000000244270B500250124FFF7CBFFC0010A
:10505000641C40EA5500E4B2C5B2082CF5D92846D4
:1050600070BD00000D4810B5416821F470414160E9
:10507000416841F440514160094C0020C4F8AC0142
:1050800040F2EE2004F5D67411F0BCFC0120206043
:10509000BDE810400F2011F0B5BC00000020014019
:1050A0000000244210B5FFF7DDFFFFF71DFFCC2005
:1050B00000F006F8BDE81040442000F001B8000000
:1050C0002DE9F04105461448416821F470414160E2
:1050D000416841F4405141600124104E0027A04630
:1050E00015F0010F4FEA5505C6F8AC7106D0022045
:1050F00011F088FCC6F8AC813C2005E03C2011F0A2
:1051000081FCC6F8AC81022011F07CFC641CE4B286
:10511000082CE5D9BDE8F0810020014000002442C0
:105120002DE9F047DFF89490254F4FF03008D9F87B
:10513000001001F11005088A0E7A08B9042E04D077
:10514000AC88A04215D8042614E01E480178012935
:1051500003D00726102038802BE01B4A002112685C
:105160001A4B120403EBD2325160A7F80080017091
:105170001FE00226844200D90446A96820468847D9
:105180008246002000F0CEFD0146224650460AF03D
:10519000B5FD2146002009F0A1F82888001B2880D1
:1051A000688820446880A7F8008009494FF440507F
:1051B0000880D9F800000672BDE8F087F0030020EF
:1051C00000040020E8030020505C00400060004024
:1051D000FE0300202DE9F047224EDFF88C803027B7
:1051E000346834F8100FA168A9B100B3A5888542CE
:1051F00000D905462846884781462088401B2080E4
:10520000608828446080002000F060FD01462A4646
:10521000484606F0D7FF208848B114494FF4405063
:1052200008800021084609F059F8A8F80070208885
:10523000A188884201D3032001E020B10520316814
:105240000872BDE8F087316806200872084900201E
:105250000968084A090402EBD1314860A8F80070D7
:10526000EFE70000F003002000040020FE03002010
:10527000505C004000600040F8B55D4C5D4D092673
:105280002068002729684278062A05D0AAB1082A92
:105290004DD00A2A50D06BE00278520668D180784F
:1052A000012804D0022804D0032804D060E0C96992
:1052B00056E0096A54E0496A52E04288B2BBC288AB
:1052C000022A55D102798ABB0278530601D183881C
:1052D00033B102F07F02012A04D0022A0CD047E049
:1052E00045493DE08A69407900219047F0B920683E
:1052F000807A0028F4D13BE0417901F00F0001F001
:1053000070020B063D4901EB8001D1F8001C03D56A
:10531000C1F30111090102E0C1F301310903384B66
:105320001B78834224D90AB90029D9D120E000781A
:1053300040061DD1334913E0027802F07F02012AB2
:1053400016D1827AA2B1428892B9027982B9C28812
:10535000012A0DD18A6940790021904740B92A4934
:1053600031B120684782816100208847002006E033
:1053700029682068096940788847032813D0216884
:105380000A8AA2F57F43FF3B0BD002280ED06AB1F8
:105390000878000626D5C888009082420AD908827B
:1053A00018E00E72F8BD20680672F8BD4FF00800D4
:1053B0000872F8BD0ED22868144B90F82C00824277
:1053C00001D21F7006E0B2FBF0F400FB142008B914
:1053D00001201870286890F82C008882BDE8F840F9
:1053E000FFF79EBE03200872094900030880F8BD3C
:1053F000F0030020F4030020CDE600080050004038
:10540000A405002061E60008A5E60008E8030020E6
:10541000FE03002005F0D0BA05F00EBB10B50A203F
:1054200011F0CEFA0848D0F80001012806D107494A
:10543000D1F8A00130B10020C1F8A0010449012039
:10544000086010BD0120F7E70000214200802142E2
:105450001404014010B50A2011F0B2FA0749D1F83E
:105460000C0128B9D1F8940130B10020C1F89401A1
:1054700003490820086010BD0120F7E7000023421F
:105480001404014010B50A2011F09AFA0C49D1F821
:10549000100160B90B4AD2F8940160B10020C2F843
:1054A0009401D1F8940140B10020C1F8940106495B
:1054B0001020086010BD0120F1E70120F5E7000091
:1054C00000002342008021421404014010B5022252
:1054D0000821002000F04AF8022317220021BDE82D
:1054E0001040084605F018BA30B50F4B1868C005D3
:1054F00006D50E4A0E4C0020117829B1C4F88C0153
:105500004FF48070186030BD0A49C1F898010A4D07
:10551000102028602D1F28600120C1F89801C4F8D0
:105520008C011070ECE7000014040140AD00002075
:105530000080214200802242140C014010B503A0DB
:10554000FCF7C0FD08490320086010BD7573622098
:10555000656E746572206C6F7720706F776572204E
:105560006D6F64650D0A0000CC05002070B5144D08
:105570008B088C07AE69240F46F00106AE619D00D2
:10558000104B2B449E680F25A540AE439E609D683E
:10559000A04005439D600C4B1C68012088400443DB
:1055A0001C60D10704D008490C310B6803430B6021
:1055B000910704D5044A083211680143116070BD97
:1055C00000100240000001400004014038B52B48A3
:1055D000816941F0800181612948016821F47F419E
:1055E0000160016841F4605101602548083001689C
:1055F00041F440610160FFF74DFA224D0024C5F8E7
:10560000AC41142005F5D67511F0DAF901202860B7
:10561000322011F0D5F98DF80040012269460020B2
:1056200000F0FEF801226946A42000F0F9F81620E7
:105630008DF8000001226946802000F0F1F80C206E
:105640008DF8000001226946882000F0E9F8022266
:105650006946A12000F01EF89DF80000302803D113
:105660009DF80100032801D0012038BD43F2030159
:1056700005A0FCF727FD002038BD00000010024007
:10568000041C0140008023424354502049443A25E1
:10569000780D0A002DE9F04115460F460446FFF744
:1056A000BBFA7020FFF784FAFFF7FEFAE0B2FFF7CB
:1056B0007FFAFFF7F9FAFFF7AFFA7120FFF778FAF0
:1056C000FFF7F2FA00246E1E09E0B44201D0012077
:1056D00000E00020FFF732FA3855641CE4B2AC4217
:1056E000F3D3BDE8F041FFF7BDBA00002DE9F14367
:1056F000484F00244FF00A09387882B0401CC0B2ED
:10570000B0FBF9F209FB1201434DA046387009B114
:105710000A2863D2012202A90220FFF7BBFF9DF8ED
:10572000080001075AD000F00F00062856D2FF21CA
:105730008140C84340F0C00085F820004FF00108C8
:10574000002695F8201008FA04F0014239D03348B9
:105750000422694630F81400FFF79CFF95F83000EA
:105760009DF80010C0079DF8010001F00F010ED058
:1057700000EB012105EB4400C1829DF802209DF859
:10578000031002F00F0201EB022181810FE000EB18
:105790000120C0F5F07105EB440081819DF80220E5
:1057A0009DF8031002F00F0201EB0221C1829DF867
:1057B00000000821B1EB101F03D005EB4400C682A6
:1057C0008681641CE4B2052CBBD3A9894FF0010883
:1057D00019B9E88A08B98DF808603E709DF808008C
:1057E000C0060ED195F82000010602D520F08000F9
:1057F00005E04FF6FF71A981E98200F0E00085F82D
:1058000020003878F02801D987F800904046BDE89C
:10581000FE8300002600002030000020EA13030869
:105820002DE9F04115460E4604460027FFF7F4F92E
:105830007020FFF7BDF9FFF737FAE0B2FFF7B8F9CC
:10584000FFF732FA002408E0305DFFF7B1F9FFF707
:105850002BFA070003D1641CE4B2AC42F4D3FFF787
:1058600001FA3846BDE8F0817CB500240D460646B5
:105870000094082201211020019407F0E1FB102080
:10588000FFF78AFA002832D132040121372007F0CD
:10589000D7FB3720FFF780FA002828D10123032205
:1058A0000821401E07F0DCFB00220121332007F015
:1058B000C7FB3320FFF770FA204A002817D169464A
:1058C00040F22A63566B1E4209D1566BB602F9D5D7
:1058D000D2F8806041F82460641C022CF2D3516B32
:1058E000090705D5906B40F00800906304207CBD4B
:1058F000516B890705D5906B40F002009063022040
:105900007CBD516B890605D5906B40F020009063FB
:1059100006207CBD516B890505D5906B40F4007065
:10592000906307207CBD40F2FF519163009909BA52
:105930006960019909BA29607CBD000000800140BE
:105940002DE9FC413548816941F080018161344C89
:10595000206820F47F402060206840F46050206080
:105960002F4D0835286840F440602860FFF792F812
:105970002C4F0026C7F8AC610A2007F5D67711F046
:105980001FF8012038600A2011F01AF8206820F46E
:1059900070602060206840F400602060286820F477
:1059A00080602860642011F00BF80422694648F2F8
:1059B000401000F04DF88DF8046069461AA0FCF71D
:1059C00081FB1CA16846FCF761FE10B10120BDE817
:1059D000FC8102208DF8000048F240040122694653
:1059E000204600F049F901226946E01D00F030F838
:1059F0009DF80010602905D210A0FCF763FB012080
:105A000000F014F90A2010F0DBFF8DF8006001228D
:105A10006946204600F030F90020D8E70010024027
:105A2000041C0140008023424354502049443A253D
:105A3000730D0A0039313437000000004465666197
:105A4000756C74205665723A25640D0A00000000DA
:105A50002DE9F04115460F460446FFF7DDF82820F2
:105A6000FFF7A6F8FFF720F9200AFFF7A1F8FFF7E4
:105A70001BF9E0B2FFF79CF8FFF716F9FFF7CCF837
:105A80002920FFF795F8FFF70FF900246E1E09E0B3
:105A9000B44201D0012000E00020FFF74FF8385554
:105AA000641CE4B2AC42F3D3BDE8F041FFF7DAB8CE
:105AB0002DE9F147594D00244FF00A0A287883B0A8
:105AC000401CC0B2B0FBFAF20AFB1201544EA046D1
:105AD000287009B10A2877D248F24E19012203A989
